:100000000C9431000C94BE020C94BE020C94BE02FF
:100010000C94BE020C94BE020C94BE020C94BE0260
:100020000C94BE020C94BE020C94BE020C94BE0250
:100030000C94BE020C94BE020C94BE020C94BE0240
:100040000C94BE020C94BE020C94BE020C94BE0230
:100050000C94BE020060006D000580006D00790008
:10006000058D11241FBECFE5D8E0DEBFCDBFE4E58E
:10007000F0E040E017C0B591A5913591259105912B
:1000800007FD0CC095918591EF01F92FE82F0590A0
:100090000D92A217B307D9F7FE0104C01D92A21753
:1000A000B307E1F7E236F40731F70E946C010C94D4
:0600B0005900F894FFCF97
:1000B6000E949F0258F00E94980240F029F45F3F88
:1000C60029F00C94AD0251110C94A7020C94BB02BA
:1000D6000E94CC0168F39923B1F3552391F3951B44
:1000E600550BBB27AA2762177307840738F09F5F53
:1000F6005F4F220F331F441FAA1FA9F335D00E2EC0
:100106003AF0E0E832D091505040E695001CCAF72C
:100116002BD0FE2F29D0660F771F881FBB1F2617EF
:1001260037074807AB07B0E809F0BB0B802DBF01C6
:10013600FF2793585F4F3AF09E3F510578F00C9495
:10014600AD020C94A7025F3FE4F3983ED4F3869584
:1001560077956795B795F7959F5FC9F7880F911DB6
:100166009695879597F90895E1E0660F771F881FA2
:10017600BB1F621773078407BA0720F0621B730B55
:0C018600840BBA0BEE1F88F7E09508957B
:100192000E94980238F00E949F0220F039F49F3F9B
:1001A20019F426F40C94BB020EF4E095E7FB0C94D0
:1001B200AD02E92F0E94CC0158F3BA176207730708
:1001C2008407950720F079F4A6F50C94A6020EF4A4
:1001D200E0950B2EBA2FA02D0B01B90190010C0155
:1001E200CA01A0011124FF27591B99F0593F50F46D
:1001F200503E68F11A16F040A22F232F342F4427C5
:10020200585FF3CF469537952795A795F0405395BC
:10021200C9F77EF41F16BA0B620B730B840BBAF08C
:100222009150A1F0FF0FBB1F661F771F881FC2F7F7
:100232000EC0BA0F621F731F841F48F4879577950B
:100242006795B795F7959E3F08F0B0CF9395880FC5
:0C02520008F09927EE0F97958795089506
:10025E00E89409C097FB3EF4909580957095619552
:10026E007F4F8F4F9F4F9923A9F0F92F96E9BB2708
:10027E009395F695879577956795B795F111F8CF84
:10028E00FAF4BB0F11F460FF1BC06F5F7F4F8F4FEF
:10029E009F4F16C0882311F096E911C0772321F0E5
:1002AE009EE8872F762F05C0662371F096E8862F7D
:1002BE0070E060E02AF09A95660F771F881FDAF7D4
:0A02CE00880F9695879597F908951B
:1002D800A098A19A80E895E20E94EE01C2E080E031
:1002E80090E00E947302892BD1F385B38C2785BBDC
:1002F80081E090E00E947302892B49F08DE690E03E
:100308000E94640284E690E00E940C0208C080E625
:1003180090E00E94640284EF91E00E940C022FEFAB
:1003280084E39CE0215080409040E1F700C0000049
:02033800D6CF1E
:10033A000E94D40188F09F5798F0B92F9927B75196
:10034A00B0F0E1F0660F771F881F991F1AF0BA956F
:10035A00C9F714C0B13091F00E94A602B1E0089525
:10036A000C94A602672F782F8827B85F39F0B93F17
:10037A00CCF3869577956795B395D9F73EF4909522
:0E038A008095709561957F4F8F4F9F4F08951E
:1003980057FD9058440F551F59F05F3F71F047952E
:1003A800880F97FB991F61F09F3F79F08795089513
:1003B800121613061406551FF2CF4695F1DF08C032
:1003C800161617061806991FF1CF8695710561054F
:0403D80008940895E8
:1003DC00BC01539A80B5886880BD072E000C880B31
:1003EC00990B0E9431019B01AC0160E074E284EF37
:1003FC0098E40E94B70220E030E040E85FE30E94FE
:0C040C008A020E94910269B910BC089598
:10041800CF93DF93CDB7DEB764970FB6F894DEBFFE
:100428000FBECDBF4AE0BE016F5F7F4F0E947F02C3
:10043800CE0101960E94640264960FB6F894DEBF5E
:0A0448000FBECDBFDF91CF910895E4
:10045200BB27FB015527AA27880F991FAA1FA4179C
:1004620010F0A41B83955051B9F7A05DAA3308F090
:10047200A95DA193009779F7B111B1931192CB01C4
:040482000C94540280
:10048600092E0394000C11F4882352F0BB0F40F49C
:10049600BF2B11F460FF04C06F5F7F4F8F4F9F4FDC
:0204A6000895B7
:1004A800DC01FC01672F71917723E1F7329704C0D3
:1004B8007C916D9370836291AE17BF07C8F308955E
:1004C800CF93DF93EC018881882331F021960E9435
:0E04D800B30289918111FBCFDF91CF9108957E
:1004E60023B330E0A90102C0559547958A95E2F7F6
:0804F600CA01817099270895E5
:1004FE00BB274A3031F4992322F4BDE290958195C1
:06050E009F4F0C942A022D
:0E0514005058BB27AA270E94DA000C9443021D
:0E0522000E949D016894B1110C94A7020895E7
:0E05300000240A9416161706180609060895E8
:0E053E0000240A9412161306140605060895EA
:0E054C00E894BB2766277727CB0197F908951F
:0C055A0097F99F6780E870E060E008956A
:080566005D9BFECF8CB90895E6
:08056E000E946B000C94430293
:060576009FEF80EC0895E8
:04057C000C940000DB
:0D0580004C4544206973204F4646090D008C
:0C058D004C4544206973204F4E090D00BE
:00000001FF
